:1000000080B400AF044B00221A60044B00221A6037
:1000100000BFBD4680BC704710E000E018E000E083
:1000200080B400AF044B1B68034A43F00503136020
:1000300000BFBD4680BC704710E000E080B483B0D4
:1000400000AF7860064A4FF000037B6802FB03F3C1
:10005000044A013B136000BF0C37BD4680BC7047AB
:100060000024F40014E000E080B400AF144B1B68DF
:10007000134A03F0F1031360124B1B68114A23F477
:100080007F4323F0F00313600F4B1B680E4A43F0CD
:100090000E0313600D4B1B680C4A03F0F103136051
:1000A0000B4B1B680A4A43F00E031360094B1B6895
:1000B000084A03F0F103136000BFBD4680BC7047DF
:1000C000285502402C550240005402402054024062
:1000D0001C550240FC53024080B582B000AF0023A3
:1000E0007B60174B1B68164A43F020031360144BC8
:1000F0001B687B60FFF7B8FFFFF782FF0220FFF766
:100100009DFFFFF78DFF0F4B1B68DBB20D4A43F0DD
:100110000E03136000BF0C4B1B6803F48033002BED
:10012000F9D0084B1B68074A03F0F103136000BFC6
:10013000054B1B6803F48033002BF9D0E3E700BFC5
:1001400008E10F40FC53024010E000E00248004785
:10015000FEE7FFF7FEBF0000D9000000000000002E
:080160000024F400000000007F
:040000030000014DAB
:00000001FF
